:04000000BDEF7BF0E5
:10F73200000EC26E0F0EC16E250E3D6E000E3E6EA5
:10F74200EFEC7DF01200890F8A0F8B0F8C0F8D0F5B
:10F75200800F810F820F830F840F920F930F940FEC
:10F76200950F960F01020304050603000206020725
:10F772000304030503060307480EF66EF70EF76E41
:10F78200000EF86E00EE01F010EE32F00900F5CF37
:10F79200EEFFE550E150FAE1616A606A5F6A5E6A13
:10F7A2005D6A000EF86E0001D7EF7BF099EC7BF0FA
:10F7B20020EE1FF010EE55F0050EDBCFE3FFE8065A
:10F7C200FCE2000E5C6E000E5B6E250E426E000EB9
:10F7D200436E550E446E000E456E2BEC7FF0290EE3
:10F7E200546E960E536E7F0EE82EFED7532EFCD724
:10F7F200542EFAD700F05B4A5C2A5CBE0AEF7CF01A
:10F802005C5009E10A0E5B5CD8A00AEF7CF00CEFB9
:10F812007CF0E6EF7BF0E2EF7BF000EF00F033509C
:10F822003410D8A417EF7CF019EF7CF01BEF7CF0BA
:10F8320051EF7CF033C0D9FF34C0DAFFDF50070B41
:10F84200366E3650020D010EF324D96E000EF420EE
:10F85200DA6EDECF37F0DDCF38F037C0D9FF38C0EF
:10F86200DAFF35C039F0F00E391633C0E1FF34C08B
:10F87200E2FFE750070B3A6E3A50020D010EF324F5
:10F88200E16E000EF420E26EE6CF3BF0E5CF3CF0F5
:10F892003BC0E1FF3CC0E2FFE7500F0B3910DF6EC7
:10F8A200120033503410D8A459EF7CF05BEF7CF097
:10F8B2005DEF7CF093EF7CF033C0D9FF34C0DAFF08
:10F8C200DF50070B366E3650020D010EF324D96E4F
:10F8D200000EF420DA6EDECF37F0DDCF38F037C01D
:10F8E200D9FF38C0DAFF35C039F00F0E391633C0F0
:10F8F200E1FF34C0E2FFE750070B3A6E3A50020DC7
:10F90200010EF324E16E000EF420E26EE6CF3BF02E
:10F91200E5CF3CF03BC0E1FF3CC0E2FFE750F00B1B
:10F922003910DF6E120033503410D8A49BEF7CF0F4
:10F932009DEF7CF09FEF7CF0D5EF7CF033C0D9FFD8
:10F9420034C0DAFFDF50070B366E3650020D150E4B
:10F95200F324D96E000EF420DA6EDECF37F0DDCF5D
:10F9620038F037C0D9FF38C0DAFF35C039F0F00EB1
:10F97200391633C0E1FF34C0E2FFE750070B3A6E9D
:10F982003A50020D150EF324E16E000EF420E26EE1
:10F99200E6CF3BF0E5CF3CF03BC0E1FF3CC0E2FFED
:10F9A200E7500F0B3910DF6E120033503410D8A419
:10F9B200DDEF7CF0DFEF7CF0E1EF7CF017EF7DF024
:10F9C20033C0D9FF34C0DAFFDF50070B366E365032
:10F9D200020D150EF324D96E000EF420DA6EDECF7E
:10F9E20037F0DDCF38F037C0D9FF38C0DAFF35C085
:10F9F20039F00F0E391633C0E1FF34C0E2FFE75091
:10FA0200070B3A6E3A50020D150EF324E16E000E0A
:10FA1200F420E26EE6CF3BF0E5CF3CF03BC0E1FFE5
:10FA22003CC0E2FFE750F00B3910DF6E12003D5090
:10FA32003E10D8A41FEF7DF021EF7DF023EF7DF083
:10FA42005FEF7DF03DC0D9FF3EC0DAFFDF50406E70
:10FA520041504018F80B4018416E419C20EE01F0D5
:10FA62003D50D9263E50DA22DF50D8A43BEF7DF03C
:10FA72003DEF7DF047EF7DF0410E336E000E346EA8
:10FA82003FC035F052EC7CF05FEF7DF020EE01F0EC
:10FA92003D50D9263E50DA22DE04D8A453EF7DF041
:10FAA20055EF7DF05FEF7DF0410E336E000E346E48
:10FAB2003FC035F010EC7CF05FEF7DF01200000EDD
:10FAC2003C6E33503410D8A469EF7DF06BEF7DF0BB
:10FAD200D8EF7DF0010E3C6EEDEF7DF033C0D9FF23
:10FAE20034C0DAFFDF30E832E832070B366E010E3F
:10FAF200376E362A7FEF7DF0D8903736362E7DEF7F
:10FB02007DF033C0D9FF34C0DAFFDF50070B386E07
:10FB12003850020D010EF324D96E000EF420DA6E75
:10FB2200DECF39F0DDCF3AF039C0D9FF3AC0DAFF83
:10FB32003750DF1233C0D9FF34C0DAFFDF8EEDEF6A
:10FB42007DF033C0D9FF34C0DAFFDF30E832E8326B
:10FB5200070B366E010E376E362AB2EF7DF0D89063
:10FB62003736362EB0EF7DF03750FF0A386E33C08D
:10FB7200D9FF34C0DAFFDF50070B396E3950020D5E
:10FB8200010EF324D96E000EF420DA6EDECF3AF0C5
:10FB9200DDCF3BF03AC0D9FF3BC0DAFF3850DF1669
:10FBA20033C0D9FF34C0DAFFDF9EEDEF7DF0355070
:10FBB200366E376A3750000AD8B4E2EF7DF06BEF49
:10FBC2007DF03650000AD8B4A2EF7DF0010AD8B415
:10FBD2006FEF7DF06BEF7DF03C5012003D503E1018
:10FBE200D8A4F6EF7DF0F8EF7DF0FAEF7DF086EF26
:10FBF2007EF03DC0D9FF3EC0DAFFDF503F6E465077
:10FC02003F18F80B3F18466E469C20EE01F03D501F
:10FC1200D9263E50DA22DF50D8A412EF7EF014EF3C
:10FC22007EF01EEF7EF0460E336E000E346EF00E46
:10FC3200356ED6EC7CF034EF7EF020EE01F03D50D4
:10FC4200D9263E50DA22DE04D8A42AEF7EF02CEF29
:10FC52007EF034EF7EF0460E336E000E346E0F0EE1
:10FC6200356E94EC7CF0000E456E000E446E469CA0
:10FC720044C03FF045C040F0D8903F3640363F5038
:10FC82003D24416E40503E20426E020E4124D96E08
:10FC9200000E4220DA6EDF50436E46504318F80BD6
:10FCA2004318466E44C03FF045C040F0D8903F36FE
:10FCB20040363F503D24416E40503E20426E030E7E
:10FCC2004124D96E000E4220DA6EDF50436E434665
:10FCD2004346434646504318C70B4318466E460EEA
:10FCE200336E000E346E87EC7EF0444A452A45BEE0
:10FCF20084EF7EF0455009E1060E445CD8A084EF03
:10FD02007EF086EF7EF039EF7EF01200000E3B6E41
:10FD120033503410D8B490EF7EF092EF7EF0B2EF11
:10FD22007EF033C0D9FF34C0DAFFDF30E832E83288
:10FD3200070B356E080E3560A1EF7EF0A3EF7EF063
:10FD4200B2EF7EF033C0D9FF34C0DAFFDF50070BC9
:10FD5200356E040E3564B0EF7EF0B2EF7EF0B6EF92
:10FD62007EF0010E3B6E29EF7FF033C0D9FF34C025
:10FD7200DAFFDFBCBFEF7EF0C1EF7EF0F2EF7EF084
:10FD820033C0D9FF34C0DAFFDF30E832E832070B84
:10FD9200356E010E366E352AD1EF7EF0D8903636AA
:10FDA200352ECFEF7EF03650FF0A376E33C0D9FFC3
:10FDB20034C0DAFFDF50070B386E3850020D150ED3
:10FDC200F324D96E000EF420DA6EDECF39F0DDCFE7
:10FDD2003AF039C0D9FF3AC0DAFF3750DF1629EFBF
:10FDE2007FF033C0D9FF34C0DAFFDFACFBEF7EF027
:10FDF200FDEF7EF0B2EF7EF033C0D9FF34C0DAFF00
:10FE0200DF30E832E832070B356E010E366E352AE6
:10FE12000DEF7FF0D8903636352E0BEF7FF033C0E2
:10FE2200D9FF34C0DAFFDF50070B376E3750020DAF
:10FE3200150EF324D96E000EF420DA6EDECF38F000
:10FE4200DDCF39F038C0D9FF39C0DAFF3650DF12C2
:10FE52003B50120042504310D8A432EF7FF034EFEF
:10FE62007FF036EF7FF0FFEF7FF0000E526E000E54
:10FE7200506E000E4F6E4FC046F050C047F0D89003
:10FE82004636473646504224486E47504320496E14
:10FE9200020E4824D96E000E4920DA6EDF504A6EF7
:10FEA20051504A18F80B4A18516E4FC046F050C0D4
:10FEB20047F0D8904636473646504224486E47505F
:10FEC2004320496E030E4824D96E000E4920DA6E93
:10FED200DF504A6E4A464A464A4651504A18C70BB4
:10FEE2004A18516E510E336E000E346E010E356E8D
:10FEF20060EC7DF04F4A502A50BE89EF7FF050509F
:10FF020009E1060E4F5CD8A089EF7FF08BEF7FF0FE
:10FF12003CEF7FF05250020DF3CF46F0F4CF47F0A2
:10FF220046504224486E47504320496E020E4824F0
:10FF3200D96E000E4920DA6EDF504A6E51504A18CF
:10FF4200F80B4A18516E5250020DF3CF46F0F4CF1F
:10FF520047F046504224486E47504320496E030EF4
:10FF62004824D96E000E4920DA6EDF504A6E4A46A6
:10FF72004A464A4651504A18C70B4A18516E510E0A
:10FF8200336E000E346E000E356E60EC7DF042C0B2
:10FF92003DF043C03EF052504424D96E000E45203D
:10FFA200DA6EDF503F6E18EC7DF0000E4B6E000EE5
:10FFB2004C6E000E4D6E000E4E6E010E4B26000E64
:10FFC2004C224D224E224EBEF4EF7FF04E500DE1F8
:10FFD200410E4B5C4B0E4C584C0E4D58D8A0F4EFD2
:10FFE2007FF0F6EF7FF0DEEF7FF0522A050E5264CB
:0EFFF200FDEF7FF0FFEF7FF038EF7FF01200A1
:020000040020DA
:08000000FFFFFFFFFFFFFFFF00
:020000040030CA
:0E000000FF02091EFF8181FF0FC00FE00F40BD
:00000001FF
