:0400000088EF7CF019
:10F8FA00000EC26E0F0EC16E2F0E486E000E496EBC
:10F90A00F9EC7DF01200460EF66EF90EF76E000E57
:10F91A00F86E00EE01F010EE3EF00900F5CFEEFFB2
:10F92A00E550E150FAE15E6A5D6A5C6A5B6A5A6AAE
:10F93A00596A000EF86E0001C2EF7CF03738392F91
:10F94A003435362A3132332D43303D2B890F8A0F15
:10F95A008B0F8C0F8D0F800F810F820F830F840FF7
:10F96A00920F930F940F950F960F03000301030252
:10F97A00030303040305030603077DEC7CF02F0E43
:10F98A00496E000E4A6E5E0E4B6E000E4C6E31ECE6
:10F99A007FF05E500118D8A4D5EF7CF0D7EF7CF049
:10F9AA00E3EF7CF00F0E586E350E576E510EE82EAF
:10F9BA00FED7572EFCD7582EFAD700F05E50021801
:10F9CA00D8A4EAEF7CF0ECEF7CF0F8EF7CF0110EB3
:10F9DA00586E3C0E576ECB0EE82EFED7572EFCD72C
:10F9EA00582EFAD700F05E500318D8A4FFEF7CF027
:10F9FA0001EF7DF00DEF7DF0290E586E960E576ED1
:10FA0A007F0EE82EFED7572EFCD7582EFAD700F0D5
:10FA1A00000E5E6EC4EF7CF000EF00F03F50401025
:10FA2A00D8B41AEF7DF01CEF7DF025EF7DF0415040
:10FA3A004210D8A423EF7DF025EF7DF027EF7DF06B
:10FA4A0069EF7DF03FC0D9FF40C0DAFFDF30E8320E
:10FA5A00E832070B436E3FC0D9FF40C0DAFFDF50E0
:10FA6A00070B446E4450020D1B0EF324D96E000E90
:10FA7A00F420DA6EDECF45F0DDCF46F045C0D9FF7F
:10FA8A0046C0DAFFDF50476E432A4EEF7DF0D8902A
:10FA9A004732432E4CEF7DF04750010B41C0D9FF4E
:10FAAA0042C0DAFFDF6E41C0D9FF42C0DAFFDF5041
:10FABA00436E3FC0D9FF40C0DAFF43324332DF50C2
:10FACA0043187F0B4318DF6E1200000E486E3F503A
:10FADA004010D8A473EF7DF075EF7DF0E2EF7DF072
:10FAEA00010E486EF7EF7DF03FC0D9FF40C0DAFF44
:10FAFA00DF30E832E832070B426E010E436E422ACB
:10FB0A0089EF7DF0D8904336422E87EF7DF03FC0D3
:10FB1A00D9FF40C0DAFFDF50070B446E4450020D94
:10FB2A00110EF324D96E000EF420DA6EDECF45F002
:10FB3A00DDCF46F045C0D9FF46C0DAFF4350DF1299
:10FB4A003FC0D9FF40C0DAFFDF8EF7EF7DF03FC03C
:10FB5A00D9FF40C0DAFFDF30E832E832070B426EE5
:10FB6A00010E436E422ABCEF7DF0D8904336422EF6
:10FB7A00BAEF7DF04350FF0A446E3FC0D9FF40C040
:10FB8A00DAFFDF50070B456E4550020D110EF324C4
:10FB9A00D96E000EF420DA6EDECF46F0DDCF47F0E4
:10FBAA0046C0D9FF47C0DAFF4450DF163FC0D9FF2D
:10FBBA0040C0DAFFDF9EF7EF7DF04150426E436AA4
:10FBCA004350000AD8B4ECEF7DF075EF7DF0425057
:10FBDA00000AD8B4ACEF7DF0010AD8B479EF7DF011
:10FBEA0075EF7DF04850120048504910D8A400EF34
:10FBFA007EF002EF7EF004EF7EF08CEF7EF0519CF7
:10FC0A00000E4F6E4F50020DF3CF4AF0F4CF4BF077
:10FC1A004A504824D96E4B504920DA6EDF504C6E58
:10FC2A0051504C18F80B4C18516E4F50020DF3CF2F
:10FC3A004AF0F4CF4BF04A5048244C6E4B504920BE
:10FC4A004D6E010E4C24D96E000E4D20DA6EDF5037
:10FC5A004E6E4E464E464E4651504E18C70B4E18E3
:10FC6A00516E510E3F6E000E406E8DEC7EF04F2AA3
:10FC7A00030E4F6443EF7EF045EF7EF007EF7EF010
:10FC8A00518C000E506E5050020DF3CF4AF0F4CF53
:10FC9A004BF04A5048244C6E4B5049204D6E080E8A
:10FCAA004C24D96E000E4D20DA6EDF504E6E515044
:10FCBA004E18F80B4E18516E5050020DF3CF4AF001
:10FCCA00F4CF4BF04A5048244C6E4B5049204D6EAD
:10FCDA00090E4C24D96E000E4D20DA6EDF504E6E9E
:10FCEA004E464E464E4651504E18C70B4E18516E50
:10FCFA00510E3F6E000E406E8DEC7EF0502A030EC0
:10FD0A0050648AEF7EF08CEF7EF048EF7EF01200AE
:10FD1A00000E476E3F504010D8B496EF7EF098EF31
:10FD2A007EF0B8EF7EF03FC0D9FF40C0DAFFDF3087
:10FD3A00E832E832070B416E080E4160A7EF7EF009
:10FD4A00A9EF7EF0B8EF7EF03FC0D9FF40C0DAFFDE
:10FD5A00DF50070B416E040E4164B6EF7EF0B8EF38
:10FD6A007EF0BCEF7EF0010E476E2FEF7FF03FC0B2
:10FD7A00D9FF40C0DAFFDFBCC5EF7EF0C7EF7EF0E7
:10FD8A00F8EF7EF03FC0D9FF40C0DAFFDF30E8323B
:10FD9A00E832070B416E010E426E412AD7EF7EF020
:10FDAA00D8904236412ED5EF7EF04250FF0A436E7C
:10FDBA003FC0D9FF40C0DAFFDF50070B446E445002
:10FDCA00020D250EF324D96E000EF420DA6EDECF72
:10FDDA0045F0DDCF46F045C0D9FF46C0DAFF4350B3
:10FDEA00DF162FEF7FF03FC0D9FF40C0DAFFDFAC4C
:10FDFA0001EF7FF003EF7FF0B8EF7EF03FC0D9FF4D
:10FE0A0040C0DAFFDF30E832E832070B416E010EFC
:10FE1A00426E412A13EF7FF0D8904236412E11EFFD
:10FE2A007FF03FC0D9FF40C0DAFFDF50070B436EB7
:10FE3A004350020D250EF324D96E000EF420DA6E1B
:10FE4A00DECF44F0DDCF45F044C0D9FF45C0DAFF2C
:10FE5A004250DF124750120049504A10D8B438EFC6
:10FE6A007FF03AEF7FF043EF7FF04B504C10D8A46D
:10FE7A0041EF7FF043EF7FF045EF7FF0FFEF7FF038
:10FE8A00000E556E5550020DF3CF4DF0F4CF4EF0E3
:10FE9A004D504924D96E4E504A20DA6EDF504F6ECB
:10FEAA0054504F18F80B4F18546E5550020DF3CF9B
:10FEBA004DF0F4CF4EF04D5049244F6E4E504A202B
:10FECA00506E010E4F24D96E000E5020DA6EDF50AC
:10FEDA00516E51465146514654505118C70B51184C
:10FEEA00546E540E3F6E000E406E010E416E6AEC67
:10FEFA007DF0000E566E5650020DF3CF4DF0F4CF42
:10FF0A004EF04D5049244F6E4E504A20506E080E06
:10FF1A004F24D96E000E5020DA6EDF50516E5250C7
:10FF2A005118F80B5118526E5650020DF3CF4DF07E
:10FF3A00F4CF4EF04D5049244F6E4E504A20506E29
:10FF4A00090E4F24D96E000E5020DA6EDF50516E22
:10FF5A0051465146514652505118C70B5118526ECC
:10FF6A00520E3F6E000E406E530E416E000E426EF0
:10FF7A0013EC7DF05304D8A4C5EF7FF0C7EF7FF0F0
:10FF8A00E5EF7FF05550040D010EF3244D6E000E7F
:10FF9A00F4204E6E56504D24D96E000E4E20DA6E65
:10FFAA004BC0E1FF4CC0E2FFDFCFE7FF540E3F6ECC
:10FFBA00000E406E000E416E6AEC7DF0FFEF7FF09E
:10FFCA00562A030E5664ECEF7FF0EEEF7FF080EFD7
:10FFDA007FF0540E3F6E000E406E000E416E6AECCA
:10FFEA007DF0552A030E5564FDEF7FF0FFEF7FF099
:06FFFA0047EF7FF012004A
:020000040020DA
:08000000FFFFFFFFFFFFFFFF00
:020000040030CA
:0E000000FF02091EFF8181FF0FC00FE00F40BD
:00000001FF
