:0400000076EF7AF02D
:10F4AA00000EC26E0F0EC16E1F0E376E000E386E42
:10F4BA00BCEC7DF01200890F8A0F8B0F8C0F8D0F19
:10F4CA00800F810F820F830F840F920F930F940F77
:10F4DA00950F960F030002060207030403050306AD
:10F4EA000307C00EF66EF40EF76E000EF86E00EE0D
:10F4FA0001F010EE2CF00900F5CFEEFFE550E150D7
:10F50A00FAE100EE57F00B0EEE6AE806FDE1000E96
:10F51A00F86E00012AEF7DF02D502E10D8A498EF36
:10F52A007AF09AEF7AF09CEF7AF0D2EF7AF02DC067
:10F53A00D9FF2EC0DAFFDF50070B306E3050020DB4
:10F54A00010EF324D96E000EF420DA6EDECF31F00C
:10F55A00DDCF32F031C0D9FF32C0DAFF2FC033F02D
:10F56A00F00E33162DC0E1FF2EC0E2FFE750070B65
:10F57A00346E3450020D010EF324E16E000EF420B5
:10F58A00E26EE6CF35F0E5CF36F035C0E1FF36C0A2
:10F59A00E2FFE7500F0B3310DF6E12002D502E10D2
:10F5AA00D8A4DAEF7AF0DCEF7AF0DEEF7AF014EF33
:10F5BA007BF02DC0D9FF2EC0DAFFDF50070B306E6B
:10F5CA003050020D010EF324D96E000EF420DA6ECB
:10F5DA00DECF31F0DDCF32F031C0D9FF32C0DAFFF1
:10F5EA002FC033F00F0E33162DC0E1FF2EC0E2FFFD
:10F5FA00E750070B346E3450020D010EF324E16E0E
:10F60A00000EF420E26EE6CF35F0E5CF36F035C0D5
:10F61A00E1FF36C0E2FFE750F00B3310DF6E120055
:10F62A002D502E10D8A41CEF7BF01EEF7BF020EF9C
:10F63A007BF056EF7BF02DC0D9FF2EC0DAFFDF50EA
:10F64A00070B306E3050020D150EF324D96E000EE2
:10F65A00F420DA6EDECF31F0DDCF32F031C0D9FFDF
:10F66A0032C0DAFF2FC033F0F00E33162DC0E1FF9F
:10F67A002EC0E2FFE750070B346E3450020D150E10
:10F68A00F324E16E000EF420E26EE6CF35F0E5CF0A
:10F69A0036F035C0E1FF36C0E2FFE7500F0B3310FA
:10F6AA00DF6E12002D502E10D8A45EEF7BF060EFB3
:10F6BA007BF062EF7BF098EF7BF02DC0D9FF2EC074
:10F6CA00DAFFDF50070B306E3050020D150EF324AF
:10F6DA00D96E000EF420DA6EDECF31F0DDCF32F0D3
:10F6EA0031C0D9FF32C0DAFF2FC033F00F0E331604
:10F6FA002DC0E1FF2EC0E2FFE750070B346E3450F5
:10F70A00020D150EF324E16E000EF420E26EE6CF30
:10F71A0035F0E5CF36F035C0E1FF36C0E2FFE750FD
:10F72A00F00B3310DF6E120037503810D8A4A0EF58
:10F73A007BF0A2EF7BF0A4EF7BF0E0EF7BF037C029
:10F74A00D9FF38C0DAFFDF503A6E3B503A18F80B4F
:10F75A003A183B6E3B9C20EE01F03750D9263850C0
:10F76A00DA22DF50D8A4BCEF7BF0BEEF7BF0C8EF03
:10F77A007BF03B0E2D6E000E2E6E39C02FF0D3ECAF
:10F78A007AF0E0EF7BF020EE01F03750D9263850BE
:10F79A00DA22DE04D8A4D4EF7BF0D6EF7BF0E0EFD8
:10F7AA007BF03B0E2D6E000E2E6E39C02FF091ECC1
:10F7BA007AF0E0EF7BF01200000E326E2EBEEAEF16
:10F7CA007BF0E8EF7BF0F0EF7BF02D6C2E1ED8B0CB
:10F7DA002E2A010E326E30BEF7EF7BF0F5EF7BF08A
:10F7EA00FBEF7BF02F6C301ED8B0302A2F50301030
:10F7FA00D8B402EF7CF004EF7CF028EF7CF0010E25
:10F80A00316E0CEF7CF0D8902F363036312A30AE7C
:10F81A0011EF7CF013EF7CF008EF7CF02F502D5C99
:10F82A0030502E58D8A01CEF7CF01EEF7CF022EF4F
:10F83A007CF02F502D5E30502E5AD89030322F3215
:10F84A00312E13EF7CF03250D8B42EEF7CF030EF2B
:10F85A007CF034EF7CF02D6C2E1ED8B02E2A2DC0F1
:10F86A002DF02EC02EF01200000E326E30BE42EF86
:10F87A007CF040EF7CF048EF7CF02F6C301ED8B063
:10F88A00302A010E326E2EBE4FEF7CF04DEF7CF027
:10F89A0055EF7CF02D6C2E1ED8B02E2A010E321A8E
:10F8AA00000E346E000E336E2F503010D8B460EF55
:10F8BA007CF062EF7CF08AEF7CF0010E316E6AEF29
:10F8CA007CF0D8902F363036312A30AE6FEF7CF08C
:10F8DA0071EF7CF066EF7CF0D890333634362F50D7
:10F8EA002D5C30502E58D8A07DEF7CF07FEF7CF055
:10F8FA0084EF7CF02F502D5E30502E5A3380D890F2
:10F90A0030322F32312E71EF7CF03250D8B490EF72
:10F91A007CF092EF7CF096EF7CF0336C341ED8B01A
:10F92A00342A33C02DF034C02EF01200000E366E89
:10F93A002D502E10D8A4A4EF7CF0A6EF7CF013EF84
:10F94A007DF0010E366E28EF7DF02DC0D9FF2EC056
:10F95A00DAFFDF30E832E832070B306E010E316E23
:10F96A00302ABAEF7CF0D8903136302EB8EF7CF0DE
:10F97A002DC0D9FF2EC0DAFFDF50070B326E32508E
:10F98A00020D010EF324D96E000EF420DA6EDECFDA
:10F99A0033F0DDCF34F033C0D9FF34C0DAFF315051
:10F9AA00DF122DC0D9FF2EC0DAFFDF8E28EF7DF0DF
:10F9BA002DC0D9FF2EC0DAFFDF30E832E832070B5C
:10F9CA00306E010E316E302AEDEF7CF0D890313670
:10F9DA00302EEBEF7CF03150FF0A326E2DC0D9FF8A
:10F9EA002EC0DAFFDF50070B336E3350020D010EC3
:10F9FA00F324D96E000EF420DA6EDECF34F0DDCFB8
:10FA0A0035F034C0D9FF35C0DAFF3250DF162DC0C9
:10FA1A00D9FF2EC0DAFFDF9E28EF7DF02F50306E1F
:10FA2A00316A3150000AD8B41DEF7DF0A6EF7CF0A0
:10FA3A003050000AD8B4DDEF7CF0010AD8B4AAEF3E
:10FA4A007CF0A6EF7CF036501200000E546E000EC9
:10FA5A00556E000E566E55EC7AF020EE4DF0050EFE
:10FA6A00DE6AE806FDE2000E536E1F0E3C6E000EC3
:10FA7A003D6E4D0E3E6E000E3F6EF8EC7EF04E0E61
:10FA8A004C6EEB0EE82EFED74C2EFCD700F0532A14
:10FA9A00310E536453EF7DF055EF7DF03AEF7DF070
:10FAAA00542A3C0E54645CEF7DF05EEF7DF061EF0A
:10FABA007DF0000E546E552A3C0E556467EF7DF0BA
:10FACA0069EF7DF06CEF7DF0000E556E562A180E28
:10FADA00566472EF7DF074EF7DF076EF7DF0000EE4
:10FAEA00566E56C02DF02E6A000E306E0A0E2F6E1C
:10FAFA0039EC7CF02D504D6E56C02DF02E6A000E5A
:10FB0A00306E0A0E2F6EE1EC7BF02D504E6E55C012
:10FB1A002DF02E6A000E306E0A0E2F6E39EC7CF034
:10FB2A002D504F6E55C02DF02E6A000E306E0A0E03
:10FB3A002F6EE1EC7BF02D50506E54C02DF02E6AE2
:10FB4A00000E306E0A0E2F6E39EC7CF02D50516E7D
:10FB5A0054C02DF02E6A000E306E0A0E2F6EE1ECA4
:10FB6A007BF02D50526E38EF7DF000EF00F03750E9
:10FB7A003810D8A4C3EF7DF0C5EF7DF0C7EF7DF054
:10FB8A0053EF7EF037C0D9FF38C0DAFFDF50396E45
:10FB9A0040503918F80B3918406E409C20EE01F09D
:10FBAA003750D9263850DA22DF50D8A4DFEF7DF05B
:10FBBA00E1EF7DF0EBEF7DF0400E2D6E000E2E6E24
:10FBCA00F00E2F6E57EC7BF001EF7EF020EE01F085
:10FBDA003750D9263850DA22DE04D8A4F7EF7DF060
:10FBEA00F9EF7DF001EF7EF0400E2D6E000E2E6EC5
:10FBFA000F0E2F6E15EC7BF0000E3F6E000E3E6E60
:10FC0A00409C3EC039F03FC03AF0D89039363A3677
:10FC1A00395037243B6E3A5038203C6E020E3B2452
:10FC2A00D96E000E3C20DA6EDF503D6E40503D1812
:10FC3A00F80B3D18406E3EC039F03FC03AF0D890FC
:10FC4A0039363A36395037243B6E3A5038203C6EB2
:10FC5A00030E3B24D96E000E3C20DA6EDF503D6E57
:10FC6A003D463D463D4640503D18C70B3D18406E47
:10FC7A00400E2D6E000E2E6E54EC7EF03E4A3F2A48
:10FC8A003FBE51EF7EF03F5009E1060E3E5CD8A020
:10FC9A0051EF7EF053EF7EF006EF7EF01200000E79
:10FCAA00356E2D502E10D8B45DEF7EF05FEF7EF0EA
:10FCBA007FEF7EF02DC0D9FF2EC0DAFFDF30E832A9
:10FCCA00E832070B2F6E080E2F606EEF7EF070EF92
:10FCDA007EF07FEF7EF02DC0D9FF2EC0DAFFDF5015
:10FCEA00070B2F6E040E2F647DEF7EF07FEF7EF000
:10FCFA0083EF7EF0010E356EF6EF7EF02DC0D9FF50
:10FD0A002EC0DAFFDFBC8CEF7EF08EEF7EF0BFEF05
:10FD1A007EF02DC0D9FF2EC0DAFFDF30E832E8329C
:10FD2A00070B2F6E010E306E2F2A9EEF7EF0D890B1
:10FD3A0030362F2E9CEF7EF03050FF0A316E2DC0E8
:10FD4A00D9FF2EC0DAFFDF50070B326E3250020D98
:10FD5A00150EF324D96E000EF420DA6EDECF33F0DE
:10FD6A00DDCF34F033C0D9FF34C0DAFF3150DF16AB
:10FD7A00F6EF7EF02DC0D9FF2EC0DAFFDFACC8EF58
:10FD8A007EF0CAEF7EF07FEF7EF02DC0D9FF2EC045
:10FD9A00DAFFDF30E832E832070B2F6E010E306EE1
:10FDAA002F2ADAEF7EF0D89030362F2ED8EF7EF059
:10FDBA002DC0D9FF2EC0DAFFDF50070B316E31504C
:10FDCA00020D150EF324D96E000EF420DA6EDECF82
:10FDDA0032F0DDCF33F032C0D9FF33C0DAFF305012
:10FDEA00DF12355012003C503D10D8A4FFEF7EF0D0
:10FDFA0001EF7FF003EF7FF0FFEF7FF0000E496E17
:10FE0A004950020DF3CF40F0F4CF41F040503C246A
:10FE1A00426E41503D20436E020E4224D96E000EBE
:10FE2A004320DA6EDF50446E4A504418F80B4418E7
:10FE3A004A6E4950020DF3CF40F0F4CF41F04050E2
:10FE4A003C24426E41503D20436E030E4224D96E3B
:10FE5A00000E4320DA6EDF50446E44464446444660
:10FE6A004A504418C70B44184A6E4A0E2D6E000EAB
:10FE7A002E6E010E2F6E9BEC7CF0492A050E49640A
:10FE8A0049EF7FF04BEF7FF005EF7FF0000E4B6EEE
:10FE9A004B50D8B453EF7FF055EF7FF08CEF7FF0E3
:10FEAA004B50406E416AD8904036413640503C240F
:10FEBA00D96E41503D20DA6EDF50426E4A504218E8
:10FECA00F80B42184A6E4B50406E416AD890403641
:10FEDA00413640503C24426E41503D20436E010E53
:10FEEA004224D96E000E4320DA6EDF50446E444637
:10FEFA00444644464A504418C70B44184A6E4A0EB0
:10FF0A002D6E000E2E6E010E2F6E9BEC7CF04B5068
:10FF1A00020DF3CF40F0F4CF41F040503C24426E42
:10FF2A0041503D20436E020E4224D96E000E4320FA
:10FF3A00DA6EDF50446E4A504418F80B44184A6E81
:10FF4A004B50020DF3CF40F0F4CF41F040503C2427
:10FF5A00426E41503D20436E030E4224D96E000E7C
:10FF6A004320DA6EDF50446E4446444644464A50C3
:10FF7A004418C70B44184A6E4A0E2D6E000E2E6E98
:10FF8A00000E2F6E9BEC7CF03CC037F03DC038F081
:10FF9A004B503E24D96E000E3F20DA6EDF50396E88
:10FFAA0099EC7BF0000E456E000E466E000E476E11
:10FFBA00000E486E010E4526000E462247224822B0
:10FFCA0048BEF4EF7FF0485047100BE1F50E455C50
:10FFDA00010E4658D8A0F4EF7FF0F6EF7FF0DFEF7E
:10FFEA007FF04B2A050E4B64FDEF7FF0FFEF7FF0A9
:06FFFA004DEF7FF0120044
:020000040020DA
:08000000FFFFFFFFFFFFFFFF00
:020000040030CA
:0E000000FF02091EFF8181FF0FC00FE00F40BD
:00000001FF
