:040000007AEF7BF028
:10F6AC00000EC26E0F0EC16E250E3D6E000E3E6E2C
:10F6BC00BCEC7DF01200890F8A0F8B0F8C0F8D0F15
:10F6CC00800F810F820F830F840F920F930F940F73
:10F6DC00950F960F010203040506030002060207AC
:10F6EC000304030503060307C20EF66EF60EF76E4F
:10F6FC00000EF86E00EE01F010EE32F00900F5CFBE
:10F70C00EEFFE550E150FAE15E6A5D6A5C6A5B6AA5
:10F71C005A6A000EF86E0001E4EF7CF0335034109E
:10F72C00D8A49BEF7BF09DEF7BF09FEF7BF0D5EFA8
:10F73C007BF033C0D9FF34C0DAFFDF50070B366ED5
:10F74C003650020D010EF324D96E000EF420DA6E41
:10F75C00DECF37F0DDCF38F037C0D9FF38C0DAFF55
:10F76C0035C039F0F00E391633C0E1FF34C0E2FF7A
:10F77C00E750070B3A6E3A50020D010EF324E16E7E
:10F78C00000EF420E26EE6CF3BF0E5CF3CF03BC040
:10F79C00E1FF3CC0E2FFE7500F0B3910DF6E1200A7
:10F7AC0033503410D8A4DDEF7BF0DFEF7BF0E1EFCA
:10F7BC007BF017EF7CF033C0D9FF34C0DAFFDF5099
:10F7CC00070B366E3650020D010EF324D96E000E67
:10F7DC00F420DA6EDECF37F0DDCF38F037C0D9FF4A
:10F7EC0038C0DAFF35C039F00F0E391633C0E1FFDF
:10F7FC0034C0E2FFE750070B3A6E3A50020D010E8F
:10F80C00F324E16E000EF420E26EE6CF3BF0E5CF80
:10F81C003CF03BC0E1FF3CC0E2FFE750F00B39107D
:10F82C00DF6E120033503410D8A41FEF7CF021EFA0
:10F83C007CF023EF7CF059EF7CF033C0D9FF34C05F
:10F84C00DAFFDF50070B366E3650020D150EF3241F
:10F85C00D96E000EF420DA6EDECF37F0DDCF38F043
:10F86C0037C0D9FF38C0DAFF35C039F0F00E391681
:10F87C0033C0E1FF34C0E2FFE750070B3A6E3A5059
:10F88C00020D150EF324E16E000EF420E26EE6CFAD
:10F89C003BF0E5CF3CF03BC0E1FF3CC0E2FFE75062
:10F8AC000F0B3910DF6E120033503410D8A461EFF7
:10F8BC007CF063EF7CF065EF7CF09BEF7CF033C069
:10F8CC00D9FF34C0DAFFDF50070B366E3650020D0D
:10F8DC00150EF324D96E000EF420DA6EDECF37F05D
:10F8EC00DDCF38F037C0D9FF38C0DAFF35C039F07A
:10F8FC000F0E391633C0E1FF34C0E2FFE750070B9F
:10F90C003A6E3A50020D150EF324E16E000EF420FF
:10F91C00E26EE6CF3BF0E5CF3CF03BC0E1FF3CC0F4
:10F92C00E2FFE750F00B3910DF6E12003D503E1035
:10F93C00D8A4A3EF7CF0A5EF7CF0A7EF7CF0E3EF6D
:10F94C007CF03DC0D9FF3EC0DAFFDF50406E415025
:10F95C004018F80B4018416E419C20EE01F03D50D0
:10F96C00D9263E50DA22DF50D8A4BFEF7CF0C1EF8D
:10F97C007CF0CBEF7CF0410E336E000E346E3FC04A
:10F98C0035F0D6EC7BF0E3EF7CF020EE01F03D504F
:10F99C00D9263E50DA22DE04D8A4D7EF7CF0D9EF7A
:10F9AC007CF0E3EF7CF0410E336E000E346E3FC002
:10F9BC0035F094EC7BF0E3EF7CF0120056EC7BF02E
:10F9CC0020EE1FF010EE53F0050EDBCFE3FFE80640
:10F9DC00FCE2000E596E530E5924D96EDA6A000EF1
:10F9EC00DA22DF2A530E5924D96EDA6A000EDA2293
:10F9FC00090EDF6404EF7DF006EF7DF00EEF7DF075
:10FA0C00530E5924D96EDA6A000EDA22000EDF6E1C
:10FA1C00250E426E000E436E530E446E000E456E64
:10FA2C00F8EC7EF09C0E526ED70EE82EFED7522EBE
:10FA3C00FCD700F0592A050E596427EF7DF029EF09
:10FA4C007DF0F1EF7CF0EFEF7CF000EF00F0000EBA
:10FA5C003C6E33503410D8A436EF7DF038EF7DF087
:10FA6C00A5EF7DF0010E3C6EBAEF7DF033C0D9FFEF
:10FA7C0034C0DAFFDF30E832E832070B366E010EA5
:10FA8C00376E362A4CEF7DF0D8903736362E4AEF4B
:10FA9C007DF033C0D9FF34C0DAFFDF50070B386E6E
:10FAAC003850020D010EF324D96E000EF420DA6EDC
:10FABC00DECF39F0DDCF3AF039C0D9FF3AC0DAFFEA
:10FACC003750DF1233C0D9FF34C0DAFFDF8EBAEF04
:10FADC007DF033C0D9FF34C0DAFFDF30E832E832D2
:10FAEC00070B366E010E376E362A7FEF7DF0D890FD
:10FAFC003736362E7DEF7DF03750FF0A386E33C027
:10FB0C00D9FF34C0DAFFDF50070B396E3950020DC4
:10FB1C00010EF324D96E000EF420DA6EDECF3AF02B
:10FB2C00DDCF3BF03AC0D9FF3BC0DAFF3850DF16CF
:10FB3C0033C0D9FF34C0DAFFDF9EBAEF7DF0355009
:10FB4C00366E376A3750000AD8B4AFEF7DF038EF15
:10FB5C007DF03650000AD8B46FEF7DF0010AD8B4AE
:10FB6C003CEF7DF038EF7DF03C5012003D503E10E4
:10FB7C00D8A4C3EF7DF0C5EF7DF0C7EF7DF053EF58
:10FB8C007EF03DC0D9FF3EC0DAFFDF503F6E4650DD
:10FB9C003F18F80B3F18466E469C20EE01F03D5086
:10FBAC00D9263E50DA22DF50D8A4DFEF7DF0E1EF0A
:10FBBC007DF0EBEF7DF0460E336E000E346EF00EE2
:10FBCC00356E5AEC7CF001EF7EF020EE01F03D50EA
:10FBDC00D9263E50DA22DE04D8A4F7EF7DF0F9EFF7
:10FBEC007DF001EF7EF0460E336E000E346E0F0E7C
:10FBFC00356E18EC7CF0000E456E000E446E469C83
:10FC0C0044C03FF045C040F0D8903F3640363F509E
:10FC1C003D24416E40503E20426E020E4124D96E6E
:10FC2C00000E4220DA6EDF50436E46504318F80B3C
:10FC3C004318466E44C03FF045C040F0D8903F3664
:10FC4C0040363F503D24416E40503E20426E030EE4
:10FC5C004124D96E000E4220DA6EDF50436E4346CB
:10FC6C004346434646504318C70B4318466E460E50
:10FC7C00336E000E346E54EC7EF0444A452A45BE79
:10FC8C0051EF7EF0455009E1060E445CD8A051EFCF
:10FC9C007EF053EF7EF006EF7EF01200000E3B6E0E
:10FCAC0033503410D8B45DEF7EF05FEF7EF07FEF11
:10FCBC007EF033C0D9FF34C0DAFFDF30E832E832EF
:10FCCC00070B356E080E35606EEF7EF070EF7EF030
:10FCDC007FEF7EF033C0D9FF34C0DAFFDF50070B63
:10FCEC00356E040E35647DEF7EF07FEF7EF083EF92
:10FCFC007EF0010E3B6EF6EF7EF033C0D9FF34C0C0
:10FD0C00DAFFDFBC8CEF7EF08EEF7EF0BFEF7EF083
:10FD1C0033C0D9FF34C0DAFFDF30E832E832070BEA
:10FD2C00356E010E366E352A9EEF7EF0D890363643
:10FD3C00352E9CEF7EF03650FF0A376E33C0D9FF5C
:10FD4C0034C0DAFFDF50070B386E3850020D150E39
:10FD5C00F324D96E000EF420DA6EDECF39F0DDCF4D
:10FD6C003AF039C0D9FF3AC0DAFF3750DF16F6EF58
:10FD7C007EF033C0D9FF34C0DAFFDFACC8EF7EF0C1
:10FD8C00CAEF7EF07FEF7EF033C0D9FF34C0DAFFCC
:10FD9C00DF30E832E832070B356E010E366E352A4D
:10FDAC00DAEF7EF0D8903636352ED8EF7EF033C0B1
:10FDBC00D9FF34C0DAFFDF50070B376E3750020D16
:10FDCC00150EF324D96E000EF420DA6EDECF38F067
:10FDDC00DDCF39F038C0D9FF39C0DAFF3650DF1229
:10FDEC003B50120042504310D8A4FFEF7EF001EFBD
:10FDFC007FF003EF7FF0FFEF7FF0000E4F6E4F5060
:10FE0C00020DF3CF46F0F4CF47F046504224486E33
:10FE1C0047504320496E020E4824D96E000E4920EB
:10FE2C00DA6EDF504A6E50504A18F80B4A18506E72
:10FE3C004F50020DF3CF46F0F4CF47F0465042241A
:10FE4C00486E47504320496E030E4824D96E000E6D
:10FE5C004920DA6EDF504A6E4A464A464A465050AE
:10FE6C004A18C70B4A18506E500E336E000E346E83
:10FE7C00010E356E2DEC7DF04F2A050E4F6449EFC7
:10FE8C007FF04BEF7FF005EF7FF0000E516E51507D
:10FE9C00D8B453EF7FF055EF7FF08CEF7FF05150DB
:10FEAC00466E476AD8904636473646504224D96E3D
:10FEBC0047504320DA6EDF50486E50504818F80B0C
:10FECC004818506E5150466E476AD89046364736A1
:10FEDC0046504224486E47504320496E010E482438
:10FEEC00D96E000E4920DA6EDF504A6E4A464A46F9
:10FEFC004A4650504A18C70B4A18506E500E336E73
:10FF0C00000E346E010E356E2DEC7DF05150020D4D
:10FF1C00F3CF46F0F4CF47F046504224486E47509A
:10FF2C004320496E020E4824D96E000E4920DA6E29
:10FF3C00DF504A6E50504A18F80B4A18506E515008
:10FF4C00020DF3CF46F0F4CF47F046504224486EF2
:10FF5C0047504320496E030E4824D96E000E4920A9
:10FF6C00DA6EDF504A6E4A464A464A4650504A18A4
:10FF7C00C70B4A18506E500E336E000E346E000EC6
:10FF8C00356E2DEC7DF042C03DF043C03EF051503B
:10FF9C004424D96E000E4520DA6EDF503F6E9CEC87
:10FFAC007CF0000E4B6E000E4C6E000E4D6E000E73
:10FFBC004E6E010E4B26000E4C224D224E224EBE92
:10FFCC00F4EF7FF04E504D100BE1F50E4B5C010E33
:10FFDC004C58D8A0F4EF7FF0F6EF7FF0DFEF7FF016
:10FFEC00512A050E5164FDEF7FF0FFEF7FF04DEFCE
:04FFFC007FF0120080
:020000040020DA
:08000000FFFFFFFFFFFFFFFF00
:020000040030CA
:0E000000FF02091EFF8181FF0FC00FE00F40BD
:00000001FF
